{
  "contractName": "Faucet",
  "abi": [
    {
      "inputs": [
        {
          "internalType": "contract IERC20",
          "name": "Token",
          "type": "address"
        }
      ],
      "stateMutability": "nonpayable",
      "type": "constructor"
    },
    {
      "inputs": [],
      "name": "token",
      "outputs": [
        {
          "internalType": "contract IERC20",
          "name": "",
          "type": "address"
        }
      ],
      "stateMutability": "view",
      "type": "function"
    },
    {
      "inputs": [],
      "name": "claim",
      "outputs": [],
      "stateMutability": "nonpayable",
      "type": "function"
    },
    {
      "inputs": [],
      "name": "isOwner",
      "outputs": [
        {
          "internalType": "bool",
          "name": "",
          "type": "bool"
        }
      ],
      "stateMutability": "view",
      "type": "function"
    },
    {
      "inputs": [
        {
          "internalType": "uint256",
          "name": "amount",
          "type": "uint256"
        }
      ],
      "name": "lock",
      "outputs": [],
      "stateMutability": "nonpayable",
      "type": "function"
    },
    {
      "inputs": [],
      "name": "FaucetAmount",
      "outputs": [
        {
          "internalType": "uint256",
          "name": "",
          "type": "uint256"
        }
      ],
      "stateMutability": "view",
      "type": "function"
    },
    {
      "inputs": [],
      "name": "UserTimeStamp",
      "outputs": [
        {
          "internalType": "uint256",
          "name": "",
          "type": "uint256"
        }
      ],
      "stateMutability": "view",
      "type": "function"
    },
    {
      "inputs": [],
      "name": "UserToClaim",
      "outputs": [
        {
          "internalType": "uint256",
          "name": "",
          "type": "uint256"
        }
      ],
      "stateMutability": "view",
      "type": "function"
    }
  ],
  "bytecode": "0x608060405234801561001057600080fd5b506040516109b43803806109b48339818101604052602081101561003357600080fd5b810190808051906020019092919050505033600160006101000a81548173ffffffffffffffffffffffffffffffffffffffff021916908373ffffffffffffffffffffffffffffffffffffffff160217905550806000806101000a81548173ffffffffffffffffffffffffffffffffffffffff021916908373ffffffffffffffffffffffffffffffffffffffff160217905550506108df806100d56000396000f3fe608060405234801561001057600080fd5b506004361061007d5760003560e01c80638f32d59b1161005b5780638f32d59b146100c8578063dd467064146100ea578063fbbe88cf14610118578063fc0c546a146101365761007d565b80631b40ecc21461008257806336cf9b59146100a05780634e71d92d146100be575b600080fd5b61008a610180565b6040518082815260200191505060405180910390f35b6100a8610260565b6040518082815260200191505060405180910390f35b6100c66102ae565b005b6100d06102b9565b604051808215151515815260200191505060405180910390f35b6101166004803603602081101561010057600080fd5b8101908080359060200190929190505050610311565b005b6101206104a6565b6040518082815260200191505060405180910390f35b61013e6104ed565b604051808273ffffffffffffffffffffffffffffffffffffffff1673ffffffffffffffffffffffffffffffffffffffff16815260200191505060405180910390f35b60008060009054906101000a900473ffffffffffffffffffffffffffffffffffffffff1673ffffffffffffffffffffffffffffffffffffffff166370a08231306040518263ffffffff1660e01b8152600401808273ffffffffffffffffffffffffffffffffffffffff1673ffffffffffffffffffffffffffffffffffffffff16815260200191505060206040518083038186803b15801561022057600080fd5b505afa158015610234573d6000803e3d6000fd5b505050506040513d602081101561024a57600080fd5b8101908080519060200190929190505050905090565b60004262015180600260003373ffffffffffffffffffffffffffffffffffffffff1673ffffffffffffffffffffffffffffffffffffffff168152602001908152602001600020540103905090565b6102b733610512565b565b6000600160009054906101000a900473ffffffffffffffffffffffffffffffffffffffff1673ffffffffffffffffffffffffffffffffffffffff163373ffffffffffffffffffffffffffffffffffffffff1614905090565b6103196102b9565b61038b576040517f08c379a00000000000000000000000000000000000000000000000000000000081526004018080602001828103825260138152602001807f4f6e6c79206f776e65722063616e2063616c6c0000000000000000000000000081525060200191505060405180910390fd5b6000809054906101000a900473ffffffffffffffffffffffffffffffffffffffff1673ffffffffffffffffffffffffffffffffffffffff166323b872dd3330846040518463ffffffff1660e01b8152600401808473ffffffffffffffffffffffffffffffffffffffff1673ffffffffffffffffffffffffffffffffffffffff1681526020018373ffffffffffffffffffffffffffffffffffffffff1673ffffffffffffffffffffffffffffffffffffffff1681526020018281526020019350505050602060405180830381600087803b15801561046757600080fd5b505af115801561047b573d6000803e3d6000fd5b505050506040513d602081101561049157600080fd5b81019080805190602001909291905050505050565b6000600260003373ffffffffffffffffffffffffffffffffffffffff1673ffffffffffffffffffffffffffffffffffffffff16815260200190815260200160002054905090565b6000809054906101000a900473ffffffffffffffffffffffffffffffffffffffff1681565b6000600260003373ffffffffffffffffffffffffffffffffffffffff1673ffffffffffffffffffffffffffffffffffffffff168152602001908152602001600020541415610689576000809054906101000a900473ffffffffffffffffffffffffffffffffffffffff1673ffffffffffffffffffffffffffffffffffffffff1663a9059cbb826103e86040518363ffffffff1660e01b8152600401808373ffffffffffffffffffffffffffffffffffffffff1673ffffffffffffffffffffffffffffffffffffffff16815260200182815260200192505050602060405180830381600087803b15801561060457600080fd5b505af1158015610618573d6000803e3d6000fd5b505050506040513d602081101561062e57600080fd5b81019080805190602001909291905050505042600260003373ffffffffffffffffffffffffffffffffffffffff1673ffffffffffffffffffffffffffffffffffffffff168152602001908152602001600020819055506108a6565b62015180600260003373ffffffffffffffffffffffffffffffffffffffff1673ffffffffffffffffffffffffffffffffffffffff16815260200190815260200160002054014211156107bf576000809054906101000a900473ffffffffffffffffffffffffffffffffffffffff1673ffffffffffffffffffffffffffffffffffffffff1663a9059cbb8260646040518363ffffffff1660e01b8152600401808373ffffffffffffffffffffffffffffffffffffffff1673ffffffffffffffffffffffffffffffffffffffff16815260200182815260200192505050602060405180830381600087803b15801561077e57600080fd5b505af1158015610792573d6000803e3d6000fd5b505050506040513d60208110156107a857600080fd5b8101908080519060200190929190505050506108a5565b6000809054906101000a900473ffffffffffffffffffffffffffffffffffffffff1673ffffffffffffffffffffffffffffffffffffffff1663a9059cbb8260016040518363ffffffff1660e01b8152600401808373ffffffffffffffffffffffffffffffffffffffff1673ffffffffffffffffffffffffffffffffffffffff16815260200182815260200192505050602060405180830381600087803b15801561086857600080fd5b505af115801561087c573d6000803e3d6000fd5b505050506040513d602081101561089257600080fd5b8101908080519060200190929190505050505b5b5056fea26469706673582212206e77c1634098e3ff54c751c29c7a0f8f0ab0c5430b9558a414cf9b5e5e85a94464736f6c634300060a0033",
  "immutableReferences": {},
  "source": "// SPDX-License-Identifier: GPL-3.0\n\npragma solidity 0.6.10;\n\nimport \"./TokenPool.sol\";\nimport \"./Ownable.sol\";\nimport \"./IERC20.sol\";\nimport \"./SafeMath.sol\";\n\ncontract Faucet{\n\n    using SafeMath for uint256;\n    IERC20 public token;\n    address private _owner;\n    mapping (address => uint256)usersClaim;\n\n    constructor (IERC20 Token) public{\n        _owner=msg.sender;\n        token = Token;\n    }\n\n    function claim() external{\n        _claim(msg.sender);\n    }\n\n    modifier onlyOwner() {\n        require(isOwner(), \"Only owner can call\");\n        _;\n    }\n\n    /**\n     * @return true if `msg.sender` is the owner of the contract.\n     */\n    function isOwner() public view returns (bool) {\n        return msg.sender == _owner;\n    }\n\n    function lock(uint256 amount) external onlyOwner {\n        token.transferFrom(msg.sender, address(this), amount);\n    }\n\n\n    function _claim(address user)private{\n        if(usersClaim[msg.sender]==0){\n            token.transfer(user, 1000);\n            usersClaim[msg.sender]=now;\n        }\n        else if(now > usersClaim[msg.sender]+ 1 days){\n            token.transfer(user, 100);\n        }\n        else{\n            token.transfer(user, 1);\n        }\n    \n    }\n\n    //View Functions\n\n    function FaucetAmount()public view returns(uint256){\n        return token.balanceOf(address(this));\n    }\n\n    function UserTimeStamp()public view returns(uint256){\n        return (usersClaim[msg.sender]);\n    }\n\n    function UserToClaim()public view returns(uint256){\n        return (usersClaim[msg.sender] + 1 days - now);\n    }\n\n\n}\n",
  "sourcePath": "/Users/yuanboli/Documents/GitHub/CSTFaucet/contracts/Faucet.sol",
  "compiler": {
    "name": "solc",
    "version": "0.6.10+commit.00c0fcaf.Emscripten.clang"
  },
  "schemaVersion": "3.4.4",
  "updatedAt": "2021-12-25T03:44:17.487Z",
  "devdoc": {
    "methods": {
      "isOwner()": {
        "returns": {
          "_0": "true if `msg.sender` is the owner of the contract."
        }
      }
    }
  },
  "userdoc": {
    "methods": {}
  }
}